{
  "contractName": "JustContract",
  "abi": [
    {
      "inputs": [
        {
          "internalType": "uint256",
          "name": "_priceToEmit",
          "type": "uint256"
        }
      ],
      "stateMutability": "nonpayable",
      "type": "constructor"
    },
    {
      "anonymous": false,
      "inputs": [
        {
          "indexed": false,
          "internalType": "string",
          "name": "strInEvent",
          "type": "string"
        },
        {
          "indexed": false,
          "internalType": "bytes32",
          "name": "hashedBytes",
          "type": "bytes32"
        },
        {
          "indexed": false,
          "internalType": "uint256",
          "name": "transactionId",
          "type": "uint256"
        },
        {
          "indexed": false,
          "internalType": "uint256",
          "name": "timestamp",
          "type": "uint256"
        }
      ],
      "name": "JustEvent",
      "type": "event"
    },
    {
      "inputs": [],
      "name": "counter",
      "outputs": [
        {
          "internalType": "uint256",
          "name": "",
          "type": "uint256"
        }
      ],
      "stateMutability": "view",
      "type": "function",
      "constant": true
    },
    {
      "inputs": [
        {
          "internalType": "uint256",
          "name": "",
          "type": "uint256"
        }
      ],
      "name": "mappStruct",
      "outputs": [
        {
          "internalType": "string",
          "name": "str",
          "type": "string"
        },
        {
          "internalType": "uint256",
          "name": "timestamp",
          "type": "uint256"
        },
        {
          "internalType": "uint256",
          "name": "paidAmount",
          "type": "uint256"
        }
      ],
      "stateMutability": "view",
      "type": "function",
      "constant": true
    },
    {
      "inputs": [],
      "name": "priceToEmit",
      "outputs": [
        {
          "internalType": "uint256",
          "name": "",
          "type": "uint256"
        }
      ],
      "stateMutability": "view",
      "type": "function",
      "constant": true
    },
    {
      "inputs": [
        {
          "internalType": "string",
          "name": "_strInEvent",
          "type": "string"
        },
        {
          "internalType": "uint256",
          "name": "_transactionId",
          "type": "uint256"
        },
        {
          "internalType": "uint256",
          "name": "_timestamp",
          "type": "uint256"
        }
      ],
      "name": "emitEvent",
      "outputs": [
        {
          "internalType": "bytes32",
          "name": "",
          "type": "bytes32"
        }
      ],
      "stateMutability": "payable",
      "type": "function",
      "payable": true
    },
    {
      "inputs": [
        {
          "internalType": "string",
          "name": "_input",
          "type": "string"
        },
        {
          "internalType": "uint256",
          "name": "_timestamp",
          "type": "uint256"
        }
      ],
      "name": "anotherThingThatIWantToTestInFrontEnd",
      "outputs": [
        {
          "internalType": "string",
          "name": "",
          "type": "string"
        }
      ],
      "stateMutability": "payable",
      "type": "function",
      "payable": true
    },
    {
      "inputs": [],
      "name": "lock",
      "outputs": [],
      "stateMutability": "payable",
      "type": "function",
      "payable": true
    },
    {
      "inputs": [],
      "name": "unlock",
      "outputs": [],
      "stateMutability": "payable",
      "type": "function",
      "payable": true
    }
  ],
  "bytecode": "0x60a06040526000805560018060006101000a81548160ff02191690831515021790555034801561002e57600080fd5b50604051610ff8380380610ff883398181016040528101906100509190610099565b8060808181525050506100c6565b600080fd5b6000819050919050565b61007681610063565b811461008157600080fd5b50565b6000815190506100938161006d565b92915050565b6000602082840312156100af576100ae61005e565b5b60006100bd84828501610084565b91505092915050565b608051610f106100e86000396000818161018001526102850152610f106000f3fe6080604052600436106100705760003560e01c80637ece4f891161004e5780637ece4f89146100fb5780639ed39c321461012b578063a69df4b51461016a578063f83d08ba1461017457610070565b80631e7639dd14610075578063260f55c8146100a057806361bc221a146100d0575b600080fd5b34801561008157600080fd5b5061008a61017e565b6040516100979190610511565b60405180910390f35b6100ba60048036038101906100b591906106b2565b6101a2565b6040516100c7919061078d565b60405180910390f35b3480156100dc57600080fd5b506100e561027b565b6040516100f29190610511565b60405180910390f35b610115600480360381019061011091906107af565b610281565b6040516101229190610837565b60405180910390f35b34801561013757600080fd5b50610152600480360381019061014d9190610852565b61035c565b6040516101619392919061087f565b60405180910390f35b61017261040e565b005b61017c610483565b005b7f000000000000000000000000000000000000000000000000000000000000000081565b6060600034116101e7576040517f08c379a00000000000000000000000000000000000000000000000000000000081526004016101de90610909565b60405180910390fd5b6040518060600160405280848152602001838152602001348152506002600080548152602001908152602001600020600082015181600001908161022b9190610b35565b50602082015181600101556040820151816002015590505060008081548092919061025590610c36565b9190505550604051806060016040528060368152602001610ea560369139905092915050565b60005481565b60007f000000000000000000000000000000000000000000000000000000000000000034146102e5576040517f08c379a00000000000000000000000000000000000000000000000000000000081526004016102dc90610cca565b60405180910390fd5b60008484846040516020016102fc93929190610d47565b6040516020818303038152906040528051906020012090507fdf1789b4af477365648f12d67b97dfdd7295ff68fc9058a0f2efa4babc97d8f5858286866040516103499493929190610d80565b60405180910390a1809150509392505050565b600260205280600052604060002060009150905080600001805461037f90610958565b80601f01602080910402602001604051908101604052809291908181526020018280546103ab90610958565b80156103f85780601f106103cd576101008083540402835291602001916103f8565b820191906000526020600020905b8154815290600101906020018083116103db57829003601f168201915b5050505050908060010154908060020154905083565b60018060006101000a81548160ff0219169083151502179055610466576040517f08c379a000000000000000000000000000000000000000000000000000000000815260040161045d90610e18565b60405180910390fd5b6000600160006101000a81548160ff021916908315150217905550565b6000600160006101000a81548160ff02191690831515021790556104dc576040517f08c379a00000000000000000000000000000000000000000000000000000000081526004016104d390610e84565b60405180910390fd5b60018060006101000a81548160ff021916908315150217905550565b6000819050919050565b61050b816104f8565b82525050565b60006020820190506105266000830184610502565b92915050565b6000604051905090565b600080fd5b600080fd5b600080fd5b600080fd5b6000601f19601f8301169050919050565b7f4e487b7100000000000000000000000000000000000000000000000000000000600052604160045260246000fd5b6105938261054a565b810181811067ffffffffffffffff821117156105b2576105b161055b565b5b80604052505050565b60006105c561052c565b90506105d1828261058a565b919050565b600067ffffffffffffffff8211156105f1576105f061055b565b5b6105fa8261054a565b9050602081019050919050565b82818337600083830152505050565b6000610629610624846105d6565b6105bb565b90508281526020810184848401111561064557610644610545565b5b610650848285610607565b509392505050565b600082601f83011261066d5761066c610540565b5b813561067d848260208601610616565b91505092915050565b61068f816104f8565b811461069a57600080fd5b50565b6000813590506106ac81610686565b92915050565b600080604083850312156106c9576106c8610536565b5b600083013567ffffffffffffffff8111156106e7576106e661053b565b5b6106f385828601610658565b92505060206107048582860161069d565b9150509250929050565b600081519050919050565b600082825260208201905092915050565b60005b8381101561074857808201518184015260208101905061072d565b60008484015250505050565b600061075f8261070e565b6107698185610719565b935061077981856020860161072a565b6107828161054a565b840191505092915050565b600060208201905081810360008301526107a78184610754565b905092915050565b6000806000606084860312156107c8576107c7610536565b5b600084013567ffffffffffffffff8111156107e6576107e561053b565b5b6107f286828701610658565b93505060206108038682870161069d565b92505060406108148682870161069d565b9150509250925092565b6000819050919050565b6108318161081e565b82525050565b600060208201905061084c6000830184610828565b92915050565b60006020828403121561086857610867610536565b5b60006108768482850161069d565b91505092915050565b600060608201905081810360008301526108998186610754565b90506108a86020830185610502565b6108b56040830184610502565b949350505050565b7f50617920736f6d657468696e6720706c65617365210000000000000000000000600082015250565b60006108f3601583610719565b91506108fe826108bd565b602082019050919050565b60006020820190508181036000830152610922816108e6565b9050919050565b7f4e487b7100000000000000000000000000000000000000000000000000000000600052602260045260246000fd5b6000600282049050600182168061097057607f821691505b60208210810361098357610982610929565b5b50919050565b60008190508160005260206000209050919050565b60006020601f8301049050919050565b600082821b905092915050565b6000600883026109eb7fffffffffffffffffffffffffffffffffffffffffffffffffffffffffffffffff826109ae565b6109f586836109ae565b95508019841693508086168417925050509392505050565b6000819050919050565b6000610a32610a2d610a28846104f8565b610a0d565b6104f8565b9050919050565b6000819050919050565b610a4c83610a17565b610a60610a5882610a39565b8484546109bb565b825550505050565b600090565b610a75610a68565b610a80818484610a43565b505050565b5b81811015610aa457610a99600082610a6d565b600181019050610a86565b5050565b601f821115610ae957610aba81610989565b610ac38461099e565b81016020851015610ad2578190505b610ae6610ade8561099e565b830182610a85565b50505b505050565b600082821c905092915050565b6000610b0c60001984600802610aee565b1980831691505092915050565b6000610b258383610afb565b9150826002028217905092915050565b610b3e8261070e565b67ffffffffffffffff811115610b5757610b5661055b565b5b610b618254610958565b610b6c828285610aa8565b600060209050601f831160018114610b9f5760008415610b8d578287015190505b610b978582610b19565b865550610bff565b601f198416610bad86610989565b60005b82811015610bd557848901518255600182019150602085019450602081019050610bb0565b86831015610bf25784890151610bee601f891682610afb565b8355505b6001600288020188555050505b505050505050565b7f4e487b7100000000000000000000000000000000000000000000000000000000600052601160045260246000fd5b6000610c41826104f8565b91507fffffffffffffffffffffffffffffffffffffffffffffffffffffffffffffffff8203610c7357610c72610c07565b5b600182019050919050565b7f50616964206e6f7420656e6f756768203a630000000000000000000000000000600082015250565b6000610cb4601283610719565b9150610cbf82610c7e565b602082019050919050565b60006020820190508181036000830152610ce381610ca7565b9050919050565b600081905092915050565b6000610d008261070e565b610d0a8185610cea565b9350610d1a81856020860161072a565b80840191505092915050565b6000819050919050565b610d41610d3c826104f8565b610d26565b82525050565b6000610d538286610cf5565b9150610d5f8285610d30565b602082019150610d6f8284610d30565b602082019150819050949350505050565b60006080820190508181036000830152610d9a8187610754565b9050610da96020830186610828565b610db66040830185610502565b610dc36060830184610502565b95945050505050565b7f4c6f636b65642076617220697320616c72656164792066616c73650000000000600082015250565b6000610e02601b83610719565b9150610e0d82610dcc565b602082019050919050565b60006020820190508181036000830152610e3181610df5565b9050919050565b7f4c6f636b65642076617220697320616c72656164792074727565000000000000600082015250565b6000610e6e601a83610719565b9150610e7982610e38565b602082019050919050565b60006020820190508181036000830152610e9d81610e61565b905091905056fe436f6e67726174756c6174696f6e7321204e6f7720796f752063616e20636f6e74696e75652070726f6372617374696e6174696e6721a2646970667358221220fc061af51abf94f4958e0bcef3d5dfdb7de800ba6c44d3c6133eb3e6a76e0c0b64736f6c63430008110033",
  "immutableReferences": {
    "3": [
      {
        "length": 32,
        "start": 384
      },
      {
        "length": 32,
        "start": 645
      }
    ]
  },
  "source": "// SPDX-License-Identifier: MIT\r\n\r\npragma solidity ^0.8.0;\r\n\r\ncontract JustContract {\r\n\r\n    uint public immutable priceToEmit;\r\n    uint public counter = 0;\r\n    bool locked = true;\r\n\r\n    constructor (uint _priceToEmit) {\r\n        priceToEmit = _priceToEmit;\r\n    }\r\n\r\n\r\n    struct SomeStruct {\r\n        string str;\r\n        uint timestamp;\r\n        uint paidAmount;\r\n    }\r\n\r\n\r\n    mapping (uint => SomeStruct) public mappStruct;\r\n\r\n\r\n    event JustEvent (\r\n        string strInEvent,\r\n        bytes32 hashedBytes,\r\n        uint transactionId,\r\n        uint timestamp\r\n    );\r\n\r\n\r\n\r\n    function emitEvent(string memory _strInEvent, uint _transactionId, uint _timestamp) payable public returns(bytes32) {\r\n        require(msg.value == priceToEmit, \"Paid not enough :c\");\r\n    \r\n        bytes32 someBytes = keccak256(abi.encodePacked(_strInEvent, _transactionId, _timestamp));\r\n        // Sign\r\n        emit JustEvent(_strInEvent, someBytes, _transactionId, _timestamp);\r\n\r\n        return someBytes;\r\n    }\r\n\r\n\r\n    function anotherThingThatIWantToTestInFrontEnd(string memory _input, uint _timestamp) payable public returns(string memory) {\r\n        require(msg.value > 0, \"Pay something please!\");\r\n        mappStruct[counter] = SomeStruct({\r\n            str: _input,\r\n            timestamp: _timestamp,\r\n            paidAmount: msg.value\r\n        });\r\n        counter++;\r\n        return \"Congratulations! Now you can continue procrastinating!\";\r\n    } \r\n\r\n    \r\n    function lock() public payable {\r\n        require(locked = false, \"Locked var is already true\");\r\n        locked = true;\r\n    }\r\n\r\n\r\n    function unlock() payable public {\r\n        require(locked = true, \"Locked var is already false\");\r\n        locked = false;\r\n    }\r\n}",
  "sourcePath": "C:\\Users\\\\react-solidity\\contracts\\contract.sol",
  "compiler": {
    "name": "solc",
    "version": "0.8.17+commit.8df45f5f.Emscripten.clang"
  },
  "schemaVersion": "3.4.10",
  "updatedAt": "2022-11-12T16:57:56.736Z",
  "networkType": "ethereum",
  "devdoc": {
    "kind": "dev",
    "methods": {},
    "version": 1
  },
  "userdoc": {
    "kind": "user",
    "methods": {},
    "version": 1
  }
}